{
  "_format": "hh-sol-artifact-1",
  "contractName": "BounceFixedSwap",
  "sourceName": "contracts/BounceFixedSwap.sol",
  "abi": [
    {
      "anonymous": false,
      "inputs": [
        {
          "indexed": true,
          "internalType": "uint256",
          "name": "index",
          "type": "uint256"
        },
        {
          "indexed": true,
          "internalType": "address",
          "name": "sender",
          "type": "address"
        },
        {
          "indexed": false,
          "internalType": "uint256",
          "name": "amount0",
          "type": "uint256"
        },
        {
          "indexed": false,
          "internalType": "uint256",
          "name": "txFee",
          "type": "uint256"
        }
      ],
      "name": "Claimed",
      "type": "event"
    },
    {
      "anonymous": false,
      "inputs": [
        {
          "indexed": true,
          "internalType": "uint256",
          "name": "index",
          "type": "uint256"
        },
        {
          "indexed": true,
          "internalType": "address",
          "name": "sender",
          "type": "address"
        },
        {
          "components": [
            {
              "internalType": "string",
              "name": "name",
              "type": "string"
            },
            {
              "internalType": "address payable",
              "name": "creator",
              "type": "address"
            },
            {
              "internalType": "address",
              "name": "token0",
              "type": "address"
            },
            {
              "internalType": "address",
              "name": "token1",
              "type": "address"
            },
            {
              "internalType": "uint256",
              "name": "amountTotal0",
              "type": "uint256"
            },
            {
              "internalType": "uint256",
              "name": "amountTotal1",
              "type": "uint256"
            },
            {
              "internalType": "uint256",
              "name": "openAt",
              "type": "uint256"
            },
            {
              "internalType": "uint256",
              "name": "closeAt",
              "type": "uint256"
            },
            {
              "internalType": "uint256",
              "name": "claimAt",
              "type": "uint256"
            },
            {
              "internalType": "bool",
              "name": "enableWhiteList",
              "type": "bool"
            }
          ],
          "indexed": false,
          "internalType": "struct BounceFixedSwap.Pool",
          "name": "pool",
          "type": "tuple"
        }
      ],
      "name": "Created",
      "type": "event"
    },
    {
      "anonymous": false,
      "inputs": [
        {
          "indexed": true,
          "internalType": "address",
          "name": "previousOwner",
          "type": "address"
        },
        {
          "indexed": true,
          "internalType": "address",
          "name": "newOwner",
          "type": "address"
        }
      ],
      "name": "OwnershipTransferred",
      "type": "event"
    },
    {
      "anonymous": false,
      "inputs": [
        {
          "indexed": true,
          "internalType": "uint256",
          "name": "index",
          "type": "uint256"
        },
        {
          "indexed": true,
          "internalType": "address",
          "name": "sender",
          "type": "address"
        },
        {
          "indexed": false,
          "internalType": "uint256",
          "name": "amount0",
          "type": "uint256"
        },
        {
          "indexed": false,
          "internalType": "uint256",
          "name": "amount1",
          "type": "uint256"
        },
        {
          "indexed": false,
          "internalType": "uint256",
          "name": "txFee",
          "type": "uint256"
        }
      ],
      "name": "Swapped",
      "type": "event"
    },
    {
      "anonymous": false,
      "inputs": [
        {
          "indexed": true,
          "internalType": "uint256",
          "name": "index",
          "type": "uint256"
        },
        {
          "indexed": true,
          "internalType": "address",
          "name": "sender",
          "type": "address"
        },
        {
          "indexed": false,
          "internalType": "uint256",
          "name": "amount0",
          "type": "uint256"
        }
      ],
      "name": "UserClaimed",
      "type": "event"
    },
    {
      "inputs": [
        {
          "internalType": "uint256",
          "name": "index",
          "type": "uint256"
        },
        {
          "internalType": "address[]",
          "name": "whitelist_",
          "type": "address[]"
        }
      ],
      "name": "addWhitelist",
      "outputs": [],
      "stateMutability": "nonpayable",
      "type": "function"
    },
    {
      "inputs": [
        {
          "internalType": "uint256",
          "name": "",
          "type": "uint256"
        }
      ],
      "name": "amountSwap0P",
      "outputs": [
        {
          "internalType": "uint256",
          "name": "",
          "type": "uint256"
        }
      ],
      "stateMutability": "view",
      "type": "function"
    },
    {
      "inputs": [
        {
          "internalType": "uint256",
          "name": "",
          "type": "uint256"
        }
      ],
      "name": "amountSwap1P",
      "outputs": [
        {
          "internalType": "uint256",
          "name": "",
          "type": "uint256"
        }
      ],
      "stateMutability": "view",
      "type": "function"
    },
    {
      "inputs": [
        {
          "components": [
            {
              "internalType": "string",
              "name": "name",
              "type": "string"
            },
            {
              "internalType": "address",
              "name": "token0",
              "type": "address"
            },
            {
              "internalType": "address",
              "name": "token1",
              "type": "address"
            },
            {
              "internalType": "uint256",
              "name": "amountTotal0",
              "type": "uint256"
            },
            {
              "internalType": "uint256",
              "name": "amountTotal1",
              "type": "uint256"
            },
            {
              "internalType": "uint256",
              "name": "openAt",
              "type": "uint256"
            },
            {
              "internalType": "uint256",
              "name": "closeAt",
              "type": "uint256"
            },
            {
              "internalType": "uint256",
              "name": "claimAt",
              "type": "uint256"
            },
            {
              "internalType": "uint256",
              "name": "maxAmount1PerWallet",
              "type": "uint256"
            },
            {
              "internalType": "bool",
              "name": "onlyBot",
              "type": "bool"
            },
            {
              "internalType": "bool",
              "name": "enableWhiteList",
              "type": "bool"
            }
          ],
          "internalType": "struct BounceFixedSwap.CreateReq",
          "name": "poolReq",
          "type": "tuple"
        },
        {
          "internalType": "address[]",
          "name": "whitelist_",
          "type": "address[]"
        }
      ],
      "name": "create",
      "outputs": [],
      "stateMutability": "nonpayable",
      "type": "function"
    },
    {
      "inputs": [
        {
          "internalType": "uint256",
          "name": "index",
          "type": "uint256"
        }
      ],
      "name": "creatorClaim",
      "outputs": [],
      "stateMutability": "nonpayable",
      "type": "function"
    },
    {
      "inputs": [
        {
          "internalType": "address",
          "name": "",
          "type": "address"
        },
        {
          "internalType": "uint256",
          "name": "",
          "type": "uint256"
        }
      ],
      "name": "creatorClaimed",
      "outputs": [
        {
          "internalType": "bool",
          "name": "",
          "type": "bool"
        }
      ],
      "stateMutability": "view",
      "type": "function"
    },
    {
      "inputs": [
        {
          "internalType": "uint256",
          "name": "",
          "type": "uint256"
        }
      ],
      "name": "filledAtP",
      "outputs": [
        {
          "internalType": "uint256",
          "name": "",
          "type": "uint256"
        }
      ],
      "stateMutability": "view",
      "type": "function"
    },
    {
      "inputs": [],
      "name": "getBotToken",
      "outputs": [
        {
          "internalType": "address",
          "name": "",
          "type": "address"
        }
      ],
      "stateMutability": "view",
      "type": "function"
    },
    {
      "inputs": [
        {
          "internalType": "bytes32",
          "name": "key",
          "type": "bytes32"
        },
        {
          "internalType": "address",
          "name": "addr",
          "type": "address"
        }
      ],
      "name": "getConfig",
      "outputs": [
        {
          "internalType": "uint256",
          "name": "",
          "type": "uint256"
        }
      ],
      "stateMutability": "view",
      "type": "function"
    },
    {
      "inputs": [
        {
          "internalType": "bytes32",
          "name": "key",
          "type": "bytes32"
        }
      ],
      "name": "getConfig",
      "outputs": [
        {
          "internalType": "uint256",
          "name": "",
          "type": "uint256"
        }
      ],
      "stateMutability": "view",
      "type": "function"
    },
    {
      "inputs": [
        {
          "internalType": "bytes32",
          "name": "key",
          "type": "bytes32"
        },
        {
          "internalType": "uint256",
          "name": "index",
          "type": "uint256"
        }
      ],
      "name": "getConfig",
      "outputs": [
        {
          "internalType": "uint256",
          "name": "",
          "type": "uint256"
        }
      ],
      "stateMutability": "view",
      "type": "function"
    },
    {
      "inputs": [],
      "name": "getMinValueOfBotHolder",
      "outputs": [
        {
          "internalType": "uint256",
          "name": "",
          "type": "uint256"
        }
      ],
      "stateMutability": "view",
      "type": "function"
    },
    {
      "inputs": [],
      "name": "getPoolCount",
      "outputs": [
        {
          "internalType": "uint256",
          "name": "",
          "type": "uint256"
        }
      ],
      "stateMutability": "view",
      "type": "function"
    },
    {
      "inputs": [],
      "name": "getStakeContract",
      "outputs": [
        {
          "internalType": "address",
          "name": "",
          "type": "address"
        }
      ],
      "stateMutability": "view",
      "type": "function"
    },
    {
      "inputs": [],
      "name": "getTxFeeRatio",
      "outputs": [
        {
          "internalType": "uint256",
          "name": "",
          "type": "uint256"
        }
      ],
      "stateMutability": "view",
      "type": "function"
    },
    {
      "inputs": [
        {
          "internalType": "uint256",
          "name": "txFeeRatio",
          "type": "uint256"
        },
        {
          "internalType": "uint256",
          "name": "minBotHolder",
          "type": "uint256"
        },
        {
          "internalType": "address",
          "name": "botToken",
          "type": "address"
        },
        {
          "internalType": "address",
          "name": "stakeContract",
          "type": "address"
        }
      ],
      "name": "initialize",
      "outputs": [],
      "stateMutability": "nonpayable",
      "type": "function"
    },
    {
      "inputs": [
        {
          "internalType": "uint256",
          "name": "",
          "type": "uint256"
        }
      ],
      "name": "maxAmount1PerWalletP",
      "outputs": [
        {
          "internalType": "uint256",
          "name": "",
          "type": "uint256"
        }
      ],
      "stateMutability": "view",
      "type": "function"
    },
    {
      "inputs": [
        {
          "internalType": "address",
          "name": "",
          "type": "address"
        },
        {
          "internalType": "uint256",
          "name": "",
          "type": "uint256"
        }
      ],
      "name": "myAmountSwapped0",
      "outputs": [
        {
          "internalType": "uint256",
          "name": "",
          "type": "uint256"
        }
      ],
      "stateMutability": "view",
      "type": "function"
    },
    {
      "inputs": [
        {
          "internalType": "address",
          "name": "",
          "type": "address"
        },
        {
          "internalType": "uint256",
          "name": "",
          "type": "uint256"
        }
      ],
      "name": "myAmountSwapped1",
      "outputs": [
        {
          "internalType": "uint256",
          "name": "",
          "type": "uint256"
        }
      ],
      "stateMutability": "view",
      "type": "function"
    },
    {
      "inputs": [
        {
          "internalType": "address",
          "name": "",
          "type": "address"
        },
        {
          "internalType": "uint256",
          "name": "",
          "type": "uint256"
        }
      ],
      "name": "myClaimed",
      "outputs": [
        {
          "internalType": "bool",
          "name": "",
          "type": "bool"
        }
      ],
      "stateMutability": "view",
      "type": "function"
    },
    {
      "inputs": [
        {
          "internalType": "uint256",
          "name": "",
          "type": "uint256"
        }
      ],
      "name": "onlyBotHolderP",
      "outputs": [
        {
          "internalType": "bool",
          "name": "",
          "type": "bool"
        }
      ],
      "stateMutability": "view",
      "type": "function"
    },
    {
      "inputs": [],
      "name": "owner",
      "outputs": [
        {
          "internalType": "address",
          "name": "",
          "type": "address"
        }
      ],
      "stateMutability": "view",
      "type": "function"
    },
    {
      "inputs": [
        {
          "internalType": "uint256",
          "name": "",
          "type": "uint256"
        }
      ],
      "name": "pools",
      "outputs": [
        {
          "internalType": "string",
          "name": "name",
          "type": "string"
        },
        {
          "internalType": "address payable",
          "name": "creator",
          "type": "address"
        },
        {
          "internalType": "address",
          "name": "token0",
          "type": "address"
        },
        {
          "internalType": "address",
          "name": "token1",
          "type": "address"
        },
        {
          "internalType": "uint256",
          "name": "amountTotal0",
          "type": "uint256"
        },
        {
          "internalType": "uint256",
          "name": "amountTotal1",
          "type": "uint256"
        },
        {
          "internalType": "uint256",
          "name": "openAt",
          "type": "uint256"
        },
        {
          "internalType": "uint256",
          "name": "closeAt",
          "type": "uint256"
        },
        {
          "internalType": "uint256",
          "name": "claimAt",
          "type": "uint256"
        },
        {
          "internalType": "bool",
          "name": "enableWhiteList",
          "type": "bool"
        }
      ],
      "stateMutability": "view",
      "type": "function"
    },
    {
      "inputs": [
        {
          "internalType": "uint256",
          "name": "index",
          "type": "uint256"
        },
        {
          "internalType": "address[]",
          "name": "whitelist_",
          "type": "address[]"
        }
      ],
      "name": "removeWhitelist",
      "outputs": [],
      "stateMutability": "nonpayable",
      "type": "function"
    },
    {
      "inputs": [],
      "name": "renounceOwnership",
      "outputs": [],
      "stateMutability": "nonpayable",
      "type": "function"
    },
    {
      "inputs": [
        {
          "internalType": "bytes32",
          "name": "key",
          "type": "bytes32"
        },
        {
          "internalType": "uint256",
          "name": "value",
          "type": "uint256"
        }
      ],
      "name": "setConfig",
      "outputs": [],
      "stateMutability": "nonpayable",
      "type": "function"
    },
    {
      "inputs": [
        {
          "internalType": "bytes32",
          "name": "key",
          "type": "bytes32"
        },
        {
          "internalType": "address",
          "name": "addr",
          "type": "address"
        },
        {
          "internalType": "uint256",
          "name": "value",
          "type": "uint256"
        }
      ],
      "name": "setConfig",
      "outputs": [],
      "stateMutability": "nonpayable",
      "type": "function"
    },
    {
      "inputs": [
        {
          "internalType": "bytes32",
          "name": "key",
          "type": "bytes32"
        },
        {
          "internalType": "uint256",
          "name": "index",
          "type": "uint256"
        },
        {
          "internalType": "uint256",
          "name": "value",
          "type": "uint256"
        }
      ],
      "name": "setConfig",
      "outputs": [],
      "stateMutability": "nonpayable",
      "type": "function"
    },
    {
      "inputs": [
        {
          "internalType": "uint256",
          "name": "index",
          "type": "uint256"
        },
        {
          "internalType": "uint256",
          "name": "amount1",
          "type": "uint256"
        }
      ],
      "name": "swap",
      "outputs": [],
      "stateMutability": "payable",
      "type": "function"
    },
    {
      "inputs": [
        {
          "internalType": "address",
          "name": "newOwner",
          "type": "address"
        }
      ],
      "name": "transferOwnership",
      "outputs": [],
      "stateMutability": "nonpayable",
      "type": "function"
    },
    {
      "inputs": [
        {
          "internalType": "uint256",
          "name": "",
          "type": "uint256"
        }
      ],
      "name": "txFeeP",
      "outputs": [
        {
          "internalType": "uint256",
          "name": "",
          "type": "uint256"
        }
      ],
      "stateMutability": "view",
      "type": "function"
    },
    {
      "inputs": [
        {
          "internalType": "uint256",
          "name": "index",
          "type": "uint256"
        }
      ],
      "name": "userClaim",
      "outputs": [],
      "stateMutability": "nonpayable",
      "type": "function"
    },
    {
      "inputs": [
        {
          "internalType": "uint256",
          "name": "",
          "type": "uint256"
        },
        {
          "internalType": "address",
          "name": "",
          "type": "address"
        }
      ],
      "name": "whitelistP",
      "outputs": [
        {
          "internalType": "bool",
          "name": "",
          "type": "bool"
        }
      ],
      "stateMutability": "view",
      "type": "function"
    }
  ],
  "bytecode": "0x608060405234801561001057600080fd5b5061358f806100206000396000f3fe6080604052600436106101ee5760003560e01c80638d0929af1161010d578063c7011b7b116100a0578063dfd29d9e1161006f578063dfd29d9e1461056c578063e34be38a14610581578063e4710390146105a1578063f2fde38b146105c1578063fe43efda146105e1576101ee565b8063c7011b7b14610504578063cc786a8014610519578063d96073cf14610539578063ddf2be3f1461054c576101ee565b8063a5ed536f116100dc578063a5ed536f1461046e578063ac4afa381461048e578063b21544f3146104c4578063c6472b12146104e4576101ee565b80638d0929af146103ea5780638da5cb5b146104175780638ec872e3146104395780638eec5d7014610459576101ee565b8063636b047511610185578063715018a611610154578063715018a614610375578063867ed9321461038a5780638aa1e44e146103aa5780638cfbe9d5146103ca576101ee565b8063636b04751461030057806363cb6c42146103205780636c221098146103355780636dd5b69d14610355576101ee565b8063211f4191116101c1578063211f4191146102805780632ad540ed146102a057806352665f47146102c057806354864415146102e0576101ee565b8063019e2729146101f3578063110808a61461021557806315fe96dc1461024b5780631bb2dd6c1461026b575b600080fd5b3480156101ff57600080fd5b5061021361020e366004612c48565b610601565b005b34801561022157600080fd5b506102356102303660046129db565b610753565b60405161024291906134cb565b60405180910390f35b34801561025757600080fd5b50610213610266366004612a62565b610765565b34801561027757600080fd5b506102356107a8565b34801561028c57600080fd5b5061023561029b366004612995565b6107e3565b3480156102ac57600080fd5b506102136102bb3660046129db565b610800565b3480156102cc57600080fd5b506102356102db3660046129f3565b610b88565b3480156102ec57600080fd5b506102356102fb3660046129db565b610baa565b34801561030c57600080fd5b5061023561031b3660046129db565b610bbc565b34801561032c57600080fd5b50610235610bce565b34801561034157600080fd5b50610213610350366004612c0d565b610c12565b34801561036157600080fd5b506102356103703660046129db565b610ce2565b34801561038157600080fd5b50610213610cf4565b34801561039657600080fd5b506102136103a5366004612aae565b610d73565b3480156103b657600080fd5b506102136103c5366004612c0d565b61126e565b3480156103d657600080fd5b506102356103e53660046129db565b6112e3565b3480156103f657600080fd5b5061040a610405366004612be1565b6112f5565b6040516102429190612d3b565b34801561042357600080fd5b5061042c611315565b6040516102429190612cea565b34801561044557600080fd5b50610235610454366004612a62565b611324565b34801561046557600080fd5b50610235611337565b34801561047a57600080fd5b50610235610489366004612995565b61133d565b34801561049a57600080fd5b506104ae6104a93660046129db565b61135a565b6040516102429a99989796959493929190612d59565b3480156104d057600080fd5b506102136104df366004612a2d565b611458565b3480156104f057600080fd5b5061040a6104ff3660046129db565b6114a2565b34801561051057600080fd5b5061042c6114b7565b34801561052557600080fd5b5061040a610534366004612995565b6114f0565b610213610547366004612a62565b611510565b34801561055857600080fd5b50610213610567366004612a83565b611c6d565b34801561057857600080fd5b5061042c611cae565b34801561058d57600080fd5b5061023561059c3660046129db565b611cec565b3480156105ad57600080fd5b5061040a6105bc366004612995565b611cfe565b3480156105cd57600080fd5b506102136105dc36600461297a565b611d1e565b3480156105ed57600080fd5b506102136105fc3660046129db565b611dd5565b600054610100900460ff168061061a575061061a6120ef565b80610628575060005460ff16155b61064d5760405162461bcd60e51b81526004016106449061317b565b60405180910390fd5b600054610100900460ff16158015610678576000805460ff1961ff0019909116610100171660011790555b6106806120f5565b610688612188565b60976020527fc7b252fd6e9303929060a312da400a79593f0b4303aa45dbfd24e4c5d4fdb2c78590557f6f70148f50089d4ed11c0858ac83480e86d3072d5886171be93c6c4ba59fe6908490556001600160a01b038084167ff8b521af4c41c6b3e43bbe26aab946504bdf758af1f0e92e5d8b88bb0e6286b4556c14dd185ad950dbdb9d1c9858dd609a1b60005282167f64b4bece0a6884013dd61733d0cecd1e6ead3e169c5dafae05953f524f2d93eb55801561074c576000805461ff00191690555b5050505050565b60d56020526000908152604090205481565b61076d6121fe565b6065546001600160a01b0390811691161461079a5760405162461bcd60e51b8152600401610644906130e2565b6107a48282612202565b5050565b695478466565526174696f60b01b60005260976020527fc7b252fd6e9303929060a312da400a79593f0b4303aa45dbfd24e4c5d4fdb2c75490565b60d260209081526000928352604080842090915290825290205481565b60985460ff166108225760405162461bcd60e51b815260040161064490613375565b6098805460ff1916905560ca548190811061084f5760405162461bcd60e51b815260040161064490612e66565b814260ca828154811061085e57fe5b90600052602060002090600a020160070154111561088e5760405162461bcd60e51b8152600401610644906133e3565b610896612764565b60ca84815481106108a357fe5b600091825260209182902060408051600a93909302909101805460026001821615610100026000190190911604601f810185900490940283016101609081019092526101408301848152929390928492909184918401828280156109485780601f1061091d57610100808354040283529160200191610948565b820191906000526020600020905b81548152906001019060200180831161092b57829003601f168201915b505050918352505060018201546001600160a01b039081166020808401919091526002840154821660408085019190915260038501548316606085015260048501546080850152600585015460a0850152600685015460c0850152600785015460e0850152600885015461010085015260099094015460ff90811615156101209094019390935284810151909116600090815260d0825283812089825290915291909120549192501615610a0e5760405162461bcd60e51b815260040161064490612f84565b6020808201516001600160a01b0316600090815260d0825260408082208783528352808220805460ff1916600117905560d5909252205415610adc5760608101516001600160a01b0316610aad57610a64611cae565b600085815260d560205260408082205490516001600160a01b03939093169281156108fc0292818181858888f19350505050158015610aa7573d6000803e3d6000fd5b50610adc565b610adc610ab8611cae565b600086815260d5602052604090205460608401516001600160a01b03169190612229565b600084815260cc60205260408120546080830151610af99161227f565b90508015610b2757610b2782602001518284604001516001600160a01b03166122299092919063ffffffff16565b600085815260d5602052604090819020549051339187917fd9cb1e2714d65a111c0f20f060176ad657496bd47a3de04ec7c3d4ca232112ac91610b6c918691906134d4565b60405180910390a350506098805460ff19166001179055505050565b6001600160a01b03811682186000908152609760205260409020545b92915050565b60cb6020526000908152604090205481565b60cd6020526000908152604090205481565b7226b4b72b30b63ab2a7b32137ba2437b63232b960691b60005260976020527f6f70148f50089d4ed11c0858ac83480e86d3072d5886171be93c6c4ba59fe6905490565b33610c1b611315565b6001600160a01b03161480610c615750336001600160a01b031660ca8381548110610c4257fe5b600091825260209091206001600a9092020101546001600160a01b0316145b610c7d5760405162461bcd60e51b815260040161064490612e3f565b60005b8151811015610cdd5760d460008481526020019081526020016000206000838381518110610caa57fe5b6020908102919091018101516001600160a01b03168252810191909152604001600020805460ff19169055600101610c80565b505050565b60009081526097602052604090205490565b610cfc6121fe565b6065546001600160a01b03908116911614610d295760405162461bcd60e51b8152600401610644906130e2565b6065546040516000916001600160a01b0316907f8be0079c531659141344cd1fd0a4f28419497f9722a3daafe3b4186f6b6457e0908390a3606580546001600160a01b0319169055565b60985460ff16610d955760405162461bcd60e51b815260040161064490613375565b6098805460ff1916905560ca54323314610dc15760405162461bcd60e51b815260040161064490613117565b6060830151610de25760405162461bcd60e51b815260040161064490612f56565b6080830151610e035760405162461bcd60e51b815260040161064490612f28565b428360a001511015610e275760405162461bcd60e51b815260040161064490612fa5565b8260a001518360c0015111610e4e5760405162461bcd60e51b8152600401610644906131f8565b60e08301511580610e6757508260c001518360e0015110155b610e835760405162461bcd60e51b8152600401610644906131f8565b825151600f1015610ea65760405162461bcd60e51b8152600401610644906130ab565b61010083015115610ec757610100830151600082815260cf60205260409020555b82610120015115610f27576000610edc6114b7565b6001600160a01b03161415610f035760405162461bcd60e51b815260040161064490613033565b610120830151600082815260ce60205260409020805460ff19169115159190911790555b60208301516040516370a0823160e01b81526000906001600160a01b038316906370a0823190610f5b903090600401612cea565b60206040518083038186803b158015610f7357600080fd5b505afa158015610f87573d6000803e3d6000fd5b505050506040513d601f19601f82011682018060405250810190610fab9190612bc9565b9050610fd133308760600151856001600160a01b03166122c8909392919063ffffffff16565b846060015161105c82846001600160a01b03166370a08231306040518263ffffffff1660e01b81526004016110069190612cea565b60206040518083038186803b15801561101e57600080fd5b505afa158015611032573d6000803e3d6000fd5b505050506040513d601f19601f820116820180604052508101906110569190612bc9565b9061227f565b146110795760405162461bcd60e51b8152600401610644906132cd565b846101400151156110af5760008451116110a55760405162461bcd60e51b815260040161064490612fcd565b6110af83856122ef565b6110b7612764565b8551815233602080830191909152808701516001600160a01b039081166040808501919091528801511660608084019190915287015160808084019190915287015160a08084019190915287015160c08084019190915287015160e080840191909152870151610100830152610140870151151561012083015260ca8054600181018255600091909152825180518493600a9093027f42d72674974f694b5f5159593243114d38a5c39c89d6b62fee061ff523240ee1019261117d9284929101906127d4565b5060208201516001820180546001600160a01b03199081166001600160a01b03938416179091556040808501516002850180548416918516919091179055606085015160038501805490931693169290921790556080830151600483015560a0830151600583015560c0830151600683015560e083015160078301556101008301516008830155610120909201516009909101805460ff191691151591909117905551339085907f418c60f37c543b8604a5c8e9ed05d35360d4b4c7e563ba6ff42c7674960b5cc99061125190859061341a565b60405180910390a350506098805460ff1916600117905550505050565b33611277611315565b6001600160a01b031614806112bd5750336001600160a01b031660ca838154811061129e57fe5b600091825260209091206001600a9092020101546001600160a01b0316145b6112d95760405162461bcd60e51b815260040161064490612e3f565b6107a482826122ef565b60cc6020526000908152604090205481565b60d460209081526000928352604080842090915290825290205460ff1681565b6065546001600160a01b031690565b1860009081526097602052604090205490565b60ca5490565b60d160209081526000928352604080842090915290825290205481565b60ca818154811061136757fe5b6000918252602091829020600a919091020180546040805160026001841615610100026000190190931692909204601f8101859004850283018501909152808252919350918391908301828280156114005780601f106113d557610100808354040283529160200191611400565b820191906000526020600020905b8154815290600101906020018083116113e357829003601f168201915b50505060018401546002850154600386015460048701546005880154600689015460078a015460088b01546009909b0154999a6001600160a01b039788169a9688169950949096169650919490939192909160ff168a565b6114606121fe565b6065546001600160a01b0390811691161461148d5760405162461bcd60e51b8152600401610644906130e2565b610cdd6001600160a01b038316841882612202565b60ce6020526000908152604090205460ff1681565b672137ba2a37b5b2b760c11b60005260976020527ff8b521af4c41c6b3e43bbe26aab946504bdf758af1f0e92e5d8b88bb0e6286b45490565b60d060209081526000928352604080842090915290825290205460ff1681565b60985460ff166115325760405162461bcd60e51b815260040161064490613375565b6098805460ff1916905560ca548290811061155f5760405162461bcd60e51b815260040161064490612e66565b824260ca828154811061156e57fe5b90600052602060002090600a0201600701541161159d5760405162461bcd60e51b815260040161064490612efb565b600084815260ce6020526040902054849060ff161561165f576115be610bce565b6115c66114b7565b6001600160a01b03166370a08231336040518263ffffffff1660e01b81526004016115f19190612cea565b60206040518083038186803b15801561160957600080fd5b505afa15801561161d573d6000803e3d6000fd5b505050506040513d601f19601f820116820180604052508101906116419190612bc9565b101561165f5760405162461bcd60e51b8152600401610644906131c9565b3332811461167f5760405162461bcd60e51b815260040161064490613117565b611687612764565b60ca878154811061169457fe5b600091825260209182902060408051600a93909302909101805460026001821615610100026000190190911604601f810185900490940283016101609081019092526101408301848152929390928492909184918401828280156117395780601f1061170e57610100808354040283529160200191611739565b820191906000526020600020905b81548152906001019060200180831161171c57829003601f168201915b505050918352505060018201546001600160a01b039081166020830152600283015481166040830152600383015416606082015260048201546080820152600582015460a0820152600682015460c0820152600782015460e0820152600882015461010082015260099091015460ff16151561012091820152810151909150156117ff57600087815260d4602090815260408083206001600160a01b038616845290915290205460ff166117ff5760405162461bcd60e51b815260040161064490612ffc565b428160c0015111156118235760405162461bcd60e51b815260040161064490613221565b600087815260cd602052604090205460a0820151116118545760405162461bcd60e51b81526004016106449061314e565b600087815260cd602052604081205460a08301518291611874919061227f565b90508781101561188f57611888888261227f565b9150611892565b50865b60006118b98460a001516118b386608001518561235590919063ffffffff16565b9061238f565b60008b815260cc6020526040812054608087015192935090916118db9161227f565b9050818111156118e85750805b60008b815260cc602052604090205461190190826123d1565b60008c815260cc602090815260408083209390935560cd9052205461192690846123d1565b60008c815260cd60209081526040808320939093556001600160a01b038916825260d181528282208e83529052205461195f90826123d1565b6001600160a01b038716600090815260d1602090815260408083208f845282528083209390935560cf9052205415611a3b5760008b815260cf60209081526040808320546001600160a01b038a16845260d283528184208f8552909252909120546119ca90856123d1565b11156119e85760405162461bcd60e51b815260040161064490613248565b6001600160a01b038616600090815260d2602090815260408083208e8452909152902054611a1690846123d1565b6001600160a01b038716600090815260d2602090815260408083208f84529091529020555b60008b815260cd602052604090205460a08601511415611a675760008b815260cb602052604090204290555b60608501516001600160a01b0316611a9d57893414611a985760405162461bcd60e51b81526004016106449061329e565b611ab7565b6060850151611ab7906001600160a01b031687308d6122c8565b610100850151611ae0578015611ae0576040850151611ae0906001600160a01b03168783612229565b8315611b4d5760608501516001600160a01b0316611b34576040516001600160a01b0387169085156108fc029086906000818181858888f19350505050158015611b2e573d6000803e3d6000fd5b50611b4d565b6060850151611b4d906001600160a01b03168786612229565b606085015160009084906001600160a01b0316611be557611b82670de0b6b3a76400006118b3611b7b6107a8565b8890612355565b60008e815260d5602052604090208054820190559150611ba2858361227f565b60208801516040519192506001600160a01b03169082156108fc029083906000818181858888f19350505050158015611bdf573d6000803e3d6000fd5b50611c0b565b611c0b87602001518289606001516001600160a01b03166122299092919063ffffffff16565b876001600160a01b03168d7f4f3e4a24c8af698786b58691f56000795f97c98a676488342ba813d788722689858486604051611c49939291906134e2565b60405180910390a350506098805460ff191660011790555050505050505050505050565b611c756121fe565b6065546001600160a01b03908116911614611ca25760405162461bcd60e51b8152600401610644906130e2565b610cdd83831882612202565b6c14dd185ad950dbdb9d1c9858dd609a1b60005260976020527f64b4bece0a6884013dd61733d0cecd1e6ead3e169c5dafae05953f524f2d93eb5490565b60cf6020526000908152604090205481565b60d360209081526000928352604080842090915290825290205460ff1681565b611d266121fe565b6065546001600160a01b03908116911614611d535760405162461bcd60e51b8152600401610644906130e2565b6001600160a01b038116611d795760405162461bcd60e51b815260040161064490612dc2565b6065546040516001600160a01b038084169216907f8be0079c531659141344cd1fd0a4f28419497f9722a3daafe3b4186f6b6457e090600090a3606580546001600160a01b0319166001600160a01b0392909216919091179055565b60985460ff16611df75760405162461bcd60e51b815260040161064490613375565b6098805460ff1916905560ca5481908110611e245760405162461bcd60e51b815260040161064490612e66565b8160ca8181548110611e3257fe5b90600052602060002090600a02016008015460001415611e645760405162461bcd60e51b81526004016106449061334e565b4260ca8281548110611e7257fe5b90600052602060002090600a0201600801541115611ea25760405162461bcd60e51b815260040161064490612e9d565b611eaa612764565b60ca8481548110611eb757fe5b600091825260209182902060408051600a93909302909101805460026001821615610100026000190190911604601f81018590049094028301610160908101909252610140830184815292939092849290918491840182828015611f5c5780601f10611f3157610100808354040283529160200191611f5c565b820191906000526020600020905b815481529060010190602001808311611f3f57829003601f168201915b505050918352505060018201546001600160a01b03908116602080840191909152600284015482166040808501919091526003850154909216606084015260048401546080840152600584015460a0840152600684015460c0840152600784015460e0840152600884015461010084015260099093015460ff90811615156101209093019290925233600081815260d385528281208a82529094529220549293509091161561201d5760405162461bcd60e51b815260040161064490612f84565b6001600160a01b038116600081815260d3602090815260408083208984528252808320805460ff1916600117905592825260d181528282208883529052205415612099576001600160a01b03808216600090815260d1602090815260408083208984529091529081902054908401516120999216903390612229565b6001600160a01b038116600081815260d1602090815260408083208984529091529081902054905187917fff29b281372993483c1ce6b621ae07832d519c2294e43340f051312701ad132a91610b6c91906134cb565b303b1590565b600054610100900460ff168061210e575061210e6120ef565b8061211c575060005460ff16155b6121385760405162461bcd60e51b81526004016106449061317b565b600054610100900460ff16158015612163576000805460ff1961ff0019909116610100171660011790555b61216b6123f6565b612173612477565b8015612185576000805461ff00191690555b50565b600054610100900460ff16806121a157506121a16120ef565b806121af575060005460ff16155b6121cb5760405162461bcd60e51b81526004016106449061317b565b600054610100900460ff161580156121f6576000805460ff1961ff0019909116610100171660011790555b612173612551565b3390565b60008281526097602052604090205481146107a45760009182526097602052604090912055565b610cdd8363a9059cbb60e01b8484604051602401612248929190612d22565b60408051601f198184030181529190526020810180516001600160e01b03166001600160e01b0319909316929092179091526125e0565b60006122c183836040518060400160405280601e81526020017f536166654d6174683a207375627472616374696f6e206f766572666c6f7700008152506126c5565b9392505050565b6122e9846323b872dd60e01b85858560405160240161224893929190612cfe565b50505050565b60005b8151811015610cdd57600083815260d46020526040812083516001929085908590811061231b57fe5b6020908102919091018101516001600160a01b03168252810191909152604001600020805460ff19169115159190911790556001016122f2565b60008261236457506000610ba4565b8282028284828161237157fe5b04146122c15760405162461bcd60e51b81526004016106449061306a565b60006122c183836040518060400160405280601a81526020017f536166654d6174683a206469766973696f6e206279207a65726f0000000000008152506126f1565b6000828201838110156122c15760405162461bcd60e51b815260040161064490612e08565b600054610100900460ff168061240f575061240f6120ef565b8061241d575060005460ff16155b6124395760405162461bcd60e51b81526004016106449061317b565b600054610100900460ff16158015612173576000805460ff1961ff0019909116610100171660011790558015612185576000805461ff001916905550565b600054610100900460ff168061249057506124906120ef565b8061249e575060005460ff16155b6124ba5760405162461bcd60e51b81526004016106449061317b565b600054610100900460ff161580156124e5576000805460ff1961ff0019909116610100171660011790555b60006124ef6121fe565b606580546001600160a01b0319166001600160a01b038316908117909155604051919250906000907f8be0079c531659141344cd1fd0a4f28419497f9722a3daafe3b4186f6b6457e0908290a3508015612185576000805461ff001916905550565b600054610100900460ff168061256a575061256a6120ef565b80612578575060005460ff16155b6125945760405162461bcd60e51b81526004016106449061317b565b600054610100900460ff161580156125bf576000805460ff1961ff0019909116610100171660011790555b6098805460ff191660011790558015612185576000805461ff001916905550565b6125f2826001600160a01b0316612728565b61260e5760405162461bcd60e51b8152600401610644906133ac565b60006060836001600160a01b03168360405161262a9190612cce565b6000604051808303816000865af19150503d8060008114612667576040519150601f19603f3d011682016040523d82523d6000602084013e61266c565b606091505b50915091508161268e5760405162461bcd60e51b815260040161064490612ec6565b8051156122e957808060200190518101906126a991906129bf565b6122e95760405162461bcd60e51b815260040161064490613304565b600081848411156126e95760405162461bcd60e51b81526004016106449190612d46565b505050900390565b600081836127125760405162461bcd60e51b81526004016106449190612d46565b50600083858161271e57fe5b0495945050505050565b6000813f7fc5d2460186f7233c927e7db2dcc703c0e500b653ca82273b7bfad8045d85a47081811480159061275c57508115155b949350505050565b6040518061014001604052806060815260200160006001600160a01b0316815260200160006001600160a01b0316815260200160006001600160a01b0316815260200160008152602001600081526020016000815260200160008152602001600081526020016000151581525090565b828054600181600116156101000203166002900490600052602060002090601f016020900481019282601f1061281557805160ff1916838001178555612842565b82800160010185558215612842579182015b82811115612842578251825591602001919060010190612827565b5061284e929150612852565b5090565b5b8082111561284e5760008155600101612853565b80356001600160a01b0381168114610ba457600080fd5b600082601f83011261288e578081fd5b813567ffffffffffffffff8111156128a4578182fd5b60208082026128b48282016134f8565b838152935081840185830182870184018810156128d057600080fd5b600092505b848310156128fb576128e78882612867565b8252600192909201919083019083016128d5565b505050505092915050565b8035610ba48161354b565b600082601f830112612921578081fd5b813567ffffffffffffffff811115612937578182fd5b61294a601f8201601f19166020016134f8565b915080825283602082850101111561296157600080fd5b8060208401602084013760009082016020015292915050565b60006020828403121561298b578081fd5b6122c18383612867565b600080604083850312156129a7578081fd5b6129b18484612867565b946020939093013593505050565b6000602082840312156129d0578081fd5b81516122c18161354b565b6000602082840312156129ec578081fd5b5035919050565b60008060408385031215612a05578182fd5b8235915060208301356001600160a01b0381168114612a22578182fd5b809150509250929050565b600080600060608486031215612a41578081fd5b83359250612a528560208601612867565b9150604084013590509250925092565b60008060408385031215612a74578182fd5b50508035926020909101359150565b600080600060608486031215612a97578283fd5b505081359360208301359350604090920135919050565b60008060408385031215612ac0578182fd5b823567ffffffffffffffff80821115612ad7578384fd5b8185019150610160808388031215612aed578485fd5b612af6816134f8565b9050823582811115612b06578586fd5b612b1288828601612911565b825250612b228760208501612867565b6020820152612b348760408501612867565b6040820152606083013560608201526080830135608082015260a083013560a082015260c083013560c082015260e083013560e0820152610100808401358183015250610120612b8688828601612906565b90820152610140612b9988858301612906565b9082015293506020850135915080821115612bb2578283fd5b50612bbf8582860161287e565b9150509250929050565b600060208284031215612bda578081fd5b5051919050565b60008060408385031215612bf3578182fd5b82359150612c048460208501612867565b90509250929050565b60008060408385031215612c1f578182fd5b82359150602083013567ffffffffffffffff811115612c3c578182fd5b612bbf8582860161287e565b60008060008060808587031215612c5d578182fd5b8435935060208501359250612c758660408701612867565b9150612c848660608701612867565b905092959194509250565b6001600160a01b03169052565b15159052565b60008151808452612cba81602086016020860161351f565b601f01601f19169290920160200192915050565b60008251612ce081846020870161351f565b9190910192915050565b6001600160a01b0391909116815260200190565b6001600160a01b039384168152919092166020820152604081019190915260600190565b6001600160a01b03929092168252602082015260400190565b901515815260200190565b6000602082526122c16020830184612ca2565b6000610140808352612d6d8184018e612ca2565b6001600160a01b039c8d1660208501529a8c1660408401525050969098166060870152608086019490945260a085019290925260c084015260e083015261010082015291151561012090920191909152919050565b60208082526026908201527f4f776e61626c653a206e6577206f776e657220697320746865207a65726f206160408201526564647265737360d01b606082015260800190565b6020808252601b908201527f536166654d6174683a206164646974696f6e206f766572666c6f770000000000604082015260600190565b6020808252600d908201526c3737903832b936b4b9b9b4b7b760991b604082015260600190565b60208082526018908201527f7468697320706f6f6c20646f6573206e6f742065786973740000000000000000604082015260600190565b6020808252600f908201526e636c61696d206e6f7420726561647960881b604082015260600190565b6020808252818101527f5361666545524332303a206c6f772d6c6576656c2063616c6c206661696c6564604082015260600190565b6020808252601390820152721d1a1a5cc81c1bdbdb081a5cc818db1bdcd959606a1b604082015260600190565b602080825260149082015273696e76616c696420616d6f756e74546f74616c3160601b604082015260600190565b6020808252601490820152730696e76616c696420616d6f756e74546f74616c360641b604082015260600190565b60208082526007908201526618db185a5b595960ca1b604082015260600190565b6020808252600e908201526d1a5b9d985b1a59081bdc195b905d60921b604082015260600190565b6020808252601590820152741b9bc81dda1a5d195b1a5cdd081a5b5c1bdc9d1959605a1b604082015260600190565b60208082526017908201527f73656e646572206e6f7420696e2077686974656c697374000000000000000000604082015260600190565b60208082526018908201527f424f5420686f6c646572206e6f7420737570706f727465640000000000000000604082015260600190565b60208082526021908201527f536166654d6174683a206d756c7469706c69636174696f6e206f766572666c6f6040820152607760f81b606082015260800190565b6020808252601a908201527f6c656e677468206f66206e616d6520697320746f6f206c6f6e67000000000000604082015260600190565b6020808252818101527f4f776e61626c653a2063616c6c6572206973206e6f7420746865206f776e6572604082015260600190565b60208082526018908201527f646973616c6c6f7720636f6e74726163742063616c6c65720000000000000000604082015260600190565b6020808252601390820152727377617020616d6f756e74206973207a65726f60681b604082015260600190565b6020808252602e908201527f436f6e747261637420696e7374616e63652068617320616c726561647920626560408201526d195b881a5b9a5d1a585b1a5e995960921b606082015260800190565b602080825260159082015274082eac6e8d2dedc40d2e640dcdee840cadcdeeaced605b1b604082015260600190565b6020808252600f908201526e1a5b9d985b1a590818db1bdcd9505d608a1b604082015260600190565b6020808252600d908201526c3837b7b6103737ba1037b832b760991b604082015260600190565b60208082526036908201527f7377617070656420616d6f756e74206f6620746f6b656e31206973206578636560408201527565646564206d6178696d756d20616c6c6f77616e636560501b606082015260800190565b6020808252601590820152740d2dcecc2d8d2c840c2dadeeadce840decc408aa89605b1b604082015260600190565b6020808252601e908201527f6e6f7420737570706f7274206465666c6174696f6e61727920746f6b656e0000604082015260600190565b6020808252602a908201527f5361666545524332303a204552433230206f7065726174696f6e20646964206e6040820152691bdd081cdd58d8d9595960b21b606082015260800190565b6020808252600d908201526c696e76616c696420636c61696d60981b604082015260600190565b6020808252601f908201527f5265656e7472616e637947756172643a207265656e7472616e742063616c6c00604082015260600190565b6020808252601f908201527f5361666545524332303a2063616c6c20746f206e6f6e2d636f6e747261637400604082015260600190565b60208082526017908201527f7468697320706f6f6c206973206e6f7420636c6f736564000000000000000000604082015260600190565b6000602082528251610140806020850152613439610160850183612ca2565b9150602085015161344d6040860182612c8f565b5060408501516134606060860182612c8f565b5060608501516134736080860182612c8f565b50608085015160a085015260a085015160c085015260c085015160e085015260e08501516101008181870152808701519150506101208181870152808701519150506134c182860182612c9c565b5090949350505050565b90815260200190565b918252602082015260400190565b9283526020830191909152604082015260600190565b60405181810167ffffffffffffffff8111828210171561351757600080fd5b604052919050565b60005b8381101561353a578181015183820152602001613522565b838111156122e95750506000910152565b801515811461218557600080fdfea264697066735822122053d198750763603c1b650617d50244f944c16f56233c50b8b626be83c3e95ad964736f6c634300060c0033",
  "linkReferences": {},
  "deployedLinkReferences": {}
}