{
  "_format": "hh-sol-artifact-1",
  "contractName": "BounceOTC",
  "sourceName": "contracts/BounceOTC.sol",
  "abi": [
    {
      "anonymous": false,
      "inputs": [
        {
          "indexed": true,
          "internalType": "uint256",
          "name": "index",
          "type": "uint256"
        },
        {
          "indexed": true,
          "internalType": "address",
          "name": "sender",
          "type": "address"
        },
        {
          "indexed": false,
          "internalType": "uint256",
          "name": "amount0",
          "type": "uint256"
        },
        {
          "indexed": false,
          "internalType": "uint256",
          "name": "txFee",
          "type": "uint256"
        }
      ],
      "name": "Claimed",
      "type": "event"
    },
    {
      "anonymous": false,
      "inputs": [
        {
          "indexed": true,
          "internalType": "uint256",
          "name": "index",
          "type": "uint256"
        },
        {
          "indexed": true,
          "internalType": "address",
          "name": "sender",
          "type": "address"
        },
        {
          "components": [
            {
              "internalType": "string",
              "name": "name",
              "type": "string"
            },
            {
              "internalType": "address payable",
              "name": "creator",
              "type": "address"
            },
            {
              "internalType": "address",
              "name": "token0",
              "type": "address"
            },
            {
              "internalType": "address",
              "name": "token1",
              "type": "address"
            },
            {
              "internalType": "uint256",
              "name": "amountTotal0",
              "type": "uint256"
            },
            {
              "internalType": "uint256",
              "name": "amountTotal1",
              "type": "uint256"
            },
            {
              "internalType": "uint256",
              "name": "openAt",
              "type": "uint256"
            },
            {
              "internalType": "uint256",
              "name": "poolType",
              "type": "uint256"
            },
            {
              "internalType": "bool",
              "name": "enableWhiteList",
              "type": "bool"
            }
          ],
          "indexed": false,
          "internalType": "struct BounceOTC.Pool",
          "name": "pool",
          "type": "tuple"
        }
      ],
      "name": "Created",
      "type": "event"
    },
    {
      "anonymous": false,
      "inputs": [
        {
          "indexed": true,
          "internalType": "address",
          "name": "previousOwner",
          "type": "address"
        },
        {
          "indexed": true,
          "internalType": "address",
          "name": "newOwner",
          "type": "address"
        }
      ],
      "name": "OwnershipTransferred",
      "type": "event"
    },
    {
      "anonymous": false,
      "inputs": [
        {
          "indexed": true,
          "internalType": "uint256",
          "name": "index",
          "type": "uint256"
        },
        {
          "indexed": true,
          "internalType": "address",
          "name": "sender",
          "type": "address"
        },
        {
          "indexed": false,
          "internalType": "uint256",
          "name": "amount0",
          "type": "uint256"
        },
        {
          "indexed": false,
          "internalType": "uint256",
          "name": "amount1",
          "type": "uint256"
        },
        {
          "indexed": false,
          "internalType": "uint256",
          "name": "txFee",
          "type": "uint256"
        }
      ],
      "name": "Swapped",
      "type": "event"
    },
    {
      "anonymous": false,
      "inputs": [
        {
          "indexed": true,
          "internalType": "uint256",
          "name": "index",
          "type": "uint256"
        },
        {
          "indexed": true,
          "internalType": "address",
          "name": "sender",
          "type": "address"
        },
        {
          "indexed": false,
          "internalType": "uint256",
          "name": "amount0",
          "type": "uint256"
        }
      ],
      "name": "UserClaimed",
      "type": "event"
    },
    {
      "inputs": [
        {
          "internalType": "uint256",
          "name": "index",
          "type": "uint256"
        },
        {
          "internalType": "address[]",
          "name": "whitelist_",
          "type": "address[]"
        }
      ],
      "name": "addWhitelist",
      "outputs": [],
      "stateMutability": "nonpayable",
      "type": "function"
    },
    {
      "inputs": [
        {
          "internalType": "uint256",
          "name": "",
          "type": "uint256"
        }
      ],
      "name": "amountSwap0P",
      "outputs": [
        {
          "internalType": "uint256",
          "name": "",
          "type": "uint256"
        }
      ],
      "stateMutability": "view",
      "type": "function"
    },
    {
      "inputs": [
        {
          "internalType": "uint256",
          "name": "",
          "type": "uint256"
        }
      ],
      "name": "amountSwap1P",
      "outputs": [
        {
          "internalType": "uint256",
          "name": "",
          "type": "uint256"
        }
      ],
      "stateMutability": "view",
      "type": "function"
    },
    {
      "inputs": [
        {
          "components": [
            {
              "internalType": "string",
              "name": "name",
              "type": "string"
            },
            {
              "internalType": "address",
              "name": "token0",
              "type": "address"
            },
            {
              "internalType": "address",
              "name": "token1",
              "type": "address"
            },
            {
              "internalType": "uint256",
              "name": "amountTotal0",
              "type": "uint256"
            },
            {
              "internalType": "uint256",
              "name": "amountTotal1",
              "type": "uint256"
            },
            {
              "internalType": "uint256",
              "name": "openAt",
              "type": "uint256"
            },
            {
              "internalType": "uint256",
              "name": "poolType",
              "type": "uint256"
            },
            {
              "internalType": "bool",
              "name": "onlyBot",
              "type": "bool"
            },
            {
              "internalType": "bool",
              "name": "enableWhiteList",
              "type": "bool"
            }
          ],
          "internalType": "struct BounceOTC.CreateReq",
          "name": "poolReq",
          "type": "tuple"
        },
        {
          "internalType": "address[]",
          "name": "whitelist_",
          "type": "address[]"
        }
      ],
      "name": "create",
      "outputs": [],
      "stateMutability": "payable",
      "type": "function"
    },
    {
      "inputs": [
        {
          "internalType": "address",
          "name": "",
          "type": "address"
        },
        {
          "internalType": "uint256",
          "name": "",
          "type": "uint256"
        }
      ],
      "name": "creatorClaimed",
      "outputs": [
        {
          "internalType": "bool",
          "name": "",
          "type": "bool"
        }
      ],
      "stateMutability": "view",
      "type": "function"
    },
    {
      "inputs": [
        {
          "internalType": "uint256",
          "name": "index",
          "type": "uint256"
        }
      ],
      "name": "deList",
      "outputs": [],
      "stateMutability": "nonpayable",
      "type": "function"
    },
    {
      "inputs": [
        {
          "internalType": "uint256",
          "name": "",
          "type": "uint256"
        }
      ],
      "name": "filledAtP",
      "outputs": [
        {
          "internalType": "uint256",
          "name": "",
          "type": "uint256"
        }
      ],
      "stateMutability": "view",
      "type": "function"
    },
    {
      "inputs": [],
      "name": "getBotToken",
      "outputs": [
        {
          "internalType": "address",
          "name": "",
          "type": "address"
        }
      ],
      "stateMutability": "view",
      "type": "function"
    },
    {
      "inputs": [
        {
          "internalType": "bytes32",
          "name": "key",
          "type": "bytes32"
        },
        {
          "internalType": "address",
          "name": "addr",
          "type": "address"
        }
      ],
      "name": "getConfig",
      "outputs": [
        {
          "internalType": "uint256",
          "name": "",
          "type": "uint256"
        }
      ],
      "stateMutability": "view",
      "type": "function"
    },
    {
      "inputs": [
        {
          "internalType": "bytes32",
          "name": "key",
          "type": "bytes32"
        }
      ],
      "name": "getConfig",
      "outputs": [
        {
          "internalType": "uint256",
          "name": "",
          "type": "uint256"
        }
      ],
      "stateMutability": "view",
      "type": "function"
    },
    {
      "inputs": [
        {
          "internalType": "bytes32",
          "name": "key",
          "type": "bytes32"
        },
        {
          "internalType": "uint256",
          "name": "index",
          "type": "uint256"
        }
      ],
      "name": "getConfig",
      "outputs": [
        {
          "internalType": "uint256",
          "name": "",
          "type": "uint256"
        }
      ],
      "stateMutability": "view",
      "type": "function"
    },
    {
      "inputs": [],
      "name": "getMinValueOfBotHolder",
      "outputs": [
        {
          "internalType": "uint256",
          "name": "",
          "type": "uint256"
        }
      ],
      "stateMutability": "view",
      "type": "function"
    },
    {
      "inputs": [],
      "name": "getPoolCount",
      "outputs": [
        {
          "internalType": "uint256",
          "name": "",
          "type": "uint256"
        }
      ],
      "stateMutability": "view",
      "type": "function"
    },
    {
      "inputs": [],
      "name": "getStakeContract",
      "outputs": [
        {
          "internalType": "address",
          "name": "",
          "type": "address"
        }
      ],
      "stateMutability": "view",
      "type": "function"
    },
    {
      "inputs": [],
      "name": "getTxFeeRatio",
      "outputs": [
        {
          "internalType": "uint256",
          "name": "",
          "type": "uint256"
        }
      ],
      "stateMutability": "view",
      "type": "function"
    },
    {
      "inputs": [
        {
          "internalType": "uint256",
          "name": "txFeeRatio",
          "type": "uint256"
        },
        {
          "internalType": "uint256",
          "name": "minBotHolder",
          "type": "uint256"
        },
        {
          "internalType": "address",
          "name": "botToken",
          "type": "address"
        },
        {
          "internalType": "address",
          "name": "stakeContract",
          "type": "address"
        }
      ],
      "name": "initialize",
      "outputs": [],
      "stateMutability": "nonpayable",
      "type": "function"
    },
    {
      "inputs": [
        {
          "internalType": "address",
          "name": "",
          "type": "address"
        },
        {
          "internalType": "uint256",
          "name": "",
          "type": "uint256"
        }
      ],
      "name": "myAmountSwapped0",
      "outputs": [
        {
          "internalType": "uint256",
          "name": "",
          "type": "uint256"
        }
      ],
      "stateMutability": "view",
      "type": "function"
    },
    {
      "inputs": [
        {
          "internalType": "address",
          "name": "",
          "type": "address"
        },
        {
          "internalType": "uint256",
          "name": "",
          "type": "uint256"
        }
      ],
      "name": "myAmountSwapped1",
      "outputs": [
        {
          "internalType": "uint256",
          "name": "",
          "type": "uint256"
        }
      ],
      "stateMutability": "view",
      "type": "function"
    },
    {
      "inputs": [
        {
          "internalType": "address",
          "name": "",
          "type": "address"
        },
        {
          "internalType": "uint256",
          "name": "",
          "type": "uint256"
        }
      ],
      "name": "myClaimed",
      "outputs": [
        {
          "internalType": "bool",
          "name": "",
          "type": "bool"
        }
      ],
      "stateMutability": "view",
      "type": "function"
    },
    {
      "inputs": [
        {
          "internalType": "uint256",
          "name": "",
          "type": "uint256"
        }
      ],
      "name": "onlyBotHolderP",
      "outputs": [
        {
          "internalType": "bool",
          "name": "",
          "type": "bool"
        }
      ],
      "stateMutability": "view",
      "type": "function"
    },
    {
      "inputs": [],
      "name": "owner",
      "outputs": [
        {
          "internalType": "address",
          "name": "",
          "type": "address"
        }
      ],
      "stateMutability": "view",
      "type": "function"
    },
    {
      "inputs": [
        {
          "internalType": "uint256",
          "name": "",
          "type": "uint256"
        }
      ],
      "name": "pools",
      "outputs": [
        {
          "internalType": "string",
          "name": "name",
          "type": "string"
        },
        {
          "internalType": "address payable",
          "name": "creator",
          "type": "address"
        },
        {
          "internalType": "address",
          "name": "token0",
          "type": "address"
        },
        {
          "internalType": "address",
          "name": "token1",
          "type": "address"
        },
        {
          "internalType": "uint256",
          "name": "amountTotal0",
          "type": "uint256"
        },
        {
          "internalType": "uint256",
          "name": "amountTotal1",
          "type": "uint256"
        },
        {
          "internalType": "uint256",
          "name": "openAt",
          "type": "uint256"
        },
        {
          "internalType": "uint256",
          "name": "poolType",
          "type": "uint256"
        },
        {
          "internalType": "bool",
          "name": "enableWhiteList",
          "type": "bool"
        }
      ],
      "stateMutability": "view",
      "type": "function"
    },
    {
      "inputs": [
        {
          "internalType": "uint256",
          "name": "index",
          "type": "uint256"
        },
        {
          "internalType": "address[]",
          "name": "whitelist_",
          "type": "address[]"
        }
      ],
      "name": "removeWhitelist",
      "outputs": [],
      "stateMutability": "nonpayable",
      "type": "function"
    },
    {
      "inputs": [],
      "name": "renounceOwnership",
      "outputs": [],
      "stateMutability": "nonpayable",
      "type": "function"
    },
    {
      "inputs": [
        {
          "internalType": "bytes32",
          "name": "key",
          "type": "bytes32"
        },
        {
          "internalType": "uint256",
          "name": "value",
          "type": "uint256"
        }
      ],
      "name": "setConfig",
      "outputs": [],
      "stateMutability": "nonpayable",
      "type": "function"
    },
    {
      "inputs": [
        {
          "internalType": "bytes32",
          "name": "key",
          "type": "bytes32"
        },
        {
          "internalType": "address",
          "name": "addr",
          "type": "address"
        },
        {
          "internalType": "uint256",
          "name": "value",
          "type": "uint256"
        }
      ],
      "name": "setConfig",
      "outputs": [],
      "stateMutability": "nonpayable",
      "type": "function"
    },
    {
      "inputs": [
        {
          "internalType": "bytes32",
          "name": "key",
          "type": "bytes32"
        },
        {
          "internalType": "uint256",
          "name": "index",
          "type": "uint256"
        },
        {
          "internalType": "uint256",
          "name": "value",
          "type": "uint256"
        }
      ],
      "name": "setConfig",
      "outputs": [],
      "stateMutability": "nonpayable",
      "type": "function"
    },
    {
      "inputs": [
        {
          "internalType": "uint256",
          "name": "index",
          "type": "uint256"
        },
        {
          "internalType": "uint256",
          "name": "amount1",
          "type": "uint256"
        }
      ],
      "name": "swap",
      "outputs": [],
      "stateMutability": "payable",
      "type": "function"
    },
    {
      "inputs": [
        {
          "internalType": "address",
          "name": "newOwner",
          "type": "address"
        }
      ],
      "name": "transferOwnership",
      "outputs": [],
      "stateMutability": "nonpayable",
      "type": "function"
    },
    {
      "inputs": [
        {
          "internalType": "uint256",
          "name": "",
          "type": "uint256"
        }
      ],
      "name": "txFeeP",
      "outputs": [
        {
          "internalType": "uint256",
          "name": "",
          "type": "uint256"
        }
      ],
      "stateMutability": "view",
      "type": "function"
    },
    {
      "inputs": [
        {
          "internalType": "uint256",
          "name": "",
          "type": "uint256"
        },
        {
          "internalType": "address",
          "name": "",
          "type": "address"
        }
      ],
      "name": "whitelistP",
      "outputs": [
        {
          "internalType": "bool",
          "name": "",
          "type": "bool"
        }
      ],
      "stateMutability": "view",
      "type": "function"
    }
  ],
  "bytecode": "0x608060405234801561001057600080fd5b506130db806100206000396000f3fe6080604052600436106101d85760003560e01c80638cfbe9d511610102578063c6472b1211610095578063ddf2be3f11610064578063ddf2be3f14610528578063dfd29d9e14610548578063e47103901461055d578063f2fde38b1461057d576101d8565b8063c6472b12146104c0578063c7011b7b146104e0578063cc786a80146104f5578063d96073cf14610515576101d8565b80638eec5d70116100d15780638eec5d7014610436578063a5ed536f1461044b578063ac4afa381461046b578063b21544f3146104a0576101d8565b80638cfbe9d5146103a75780638d0929af146103c75780638da5cb5b146103f45780638ec872e314610416576101d8565b806352665f471161017a5780636c221098116101495780636c221098146103325780636dd5b69d14610352578063715018a6146103725780638aa1e44e14610387576101d8565b806352665f47146102bd57806354864415146102dd578063636b0475146102fd57806363cb6c421461031d576101d8565b806315fe96dc116101b657806315fe96dc146102485780631bb2dd6c14610268578063211f41911461027d57806343be2d031461029d576101d8565b8063019e2729146101dd57806307642065146101ff578063110808a614610212575b600080fd5b3480156101e957600080fd5b506101fd6101f8366004612865565b61059d565b005b6101fd61020d3660046126e2565b6106ef565b34801561021e57600080fd5b5061023261022d36600461260f565b610bbe565b60405161023f9190613017565b60405180910390f35b34801561025457600080fd5b506101fd610263366004612696565b610bd0565b34801561027457600080fd5b50610232610c13565b34801561028957600080fd5b506102326102983660046125c9565b610c4e565b3480156102a957600080fd5b506101fd6102b836600461260f565b610c6b565b3480156102c957600080fd5b506102326102d8366004612627565b611008565b3480156102e957600080fd5b506102326102f836600461260f565b61102a565b34801561030957600080fd5b5061023261031836600461260f565b61103c565b34801561032957600080fd5b5061023261104e565b34801561033e57600080fd5b506101fd61034d36600461282a565b611092565b34801561035e57600080fd5b5061023261036d36600461260f565b611162565b34801561037e57600080fd5b506101fd611174565b34801561039357600080fd5b506101fd6103a236600461282a565b6111f3565b3480156103b357600080fd5b506102326103c236600461260f565b611268565b3480156103d357600080fd5b506103e76103e23660046127fe565b61127a565b60405161023f9190612958565b34801561040057600080fd5b5061040961129a565b60405161023f9190612907565b34801561042257600080fd5b50610232610431366004612696565b6112a9565b34801561044257600080fd5b506102326112bc565b34801561045757600080fd5b506102326104663660046125c9565b6112c2565b34801561047757600080fd5b5061048b61048636600461260f565b6112df565b60405161023f99989796959493929190612976565b3480156104ac57600080fd5b506101fd6104bb366004612661565b6113d6565b3480156104cc57600080fd5b506103e76104db36600461260f565b611420565b3480156104ec57600080fd5b50610409611435565b34801561050157600080fd5b506103e76105103660046125c9565b61146e565b6101fd610523366004612696565b61148e565b34801561053457600080fd5b506101fd6105433660046126b7565b611bd4565b34801561055457600080fd5b50610409611c15565b34801561056957600080fd5b506103e76105783660046125c9565b611c53565b34801561058957600080fd5b506101fd6105983660046125ae565b611c73565b600054610100900460ff16806105b657506105b6611d2a565b806105c4575060005460ff16155b6105e95760405162461bcd60e51b81526004016105e090612d8b565b60405180910390fd5b600054610100900460ff16158015610614576000805460ff1961ff0019909116610100171660011790555b61061c611d30565b610624611dc3565b60976020527fc7b252fd6e9303929060a312da400a79593f0b4303aa45dbfd24e4c5d4fdb2c78590557f6f70148f50089d4ed11c0858ac83480e86d3072d5886171be93c6c4ba59fe6908490556001600160a01b038084167ff8b521af4c41c6b3e43bbe26aab946504bdf758af1f0e92e5d8b88bb0e6286b4556c14dd185ad950dbdb9d1c9858dd609a1b60005282167f64b4bece0a6884013dd61733d0cecd1e6ead3e169c5dafae05953f524f2d93eb5580156106e8576000805461ff00191690555b5050505050565b60985460ff166107115760405162461bcd60e51b81526004016105e090612edf565b6098805460ff1916905560ca5432331461073d5760405162461bcd60e51b81526004016105e090612d27565b606083015161075e5760405162461bcd60e51b81526004016105e090612b41565b608083015161077f5760405162461bcd60e51b81526004016105e090612b13565b428360a0015110156107a35760405162461bcd60e51b81526004016105e090612b90565b60c083015115806107b8575060018360c00151145b6107d45760405162461bcd60e51b81526004016105e090612a7d565b825151600f10156107f75760405162461bcd60e51b81526004016105e090612cbb565b8260e001511561085557600061080b611435565b6001600160a01b031614156108325760405162461bcd60e51b81526004016105e090612c43565b60e0830151600082815260ce60205260409020805460ff19169115159190911790555b60208301516001600160a01b031661088f573483606001511461088a5760405162461bcd60e51b81526004016105e090612b41565b6109e4565b60208301516040516370a0823160e01b81526000906001600160a01b038316906370a08231906108c3903090600401612907565b60206040518083038186803b1580156108db57600080fd5b505afa1580156108ef573d6000803e3d6000fd5b505050506040513d601f19601f8201168201806040525081019061091391906127e6565b905061093933308760600151856001600160a01b0316611e39909392919063ffffffff16565b84606001516109c482846001600160a01b03166370a08231306040518263ffffffff1660e01b815260040161096e9190612907565b60206040518083038186803b15801561098657600080fd5b505afa15801561099a573d6000803e3d6000fd5b505050506040513d601f19601f820116820180604052508101906109be91906127e6565b90611e97565b146109e15760405162461bcd60e51b81526004016105e090612e5e565b50505b82610100015115610a1a576000825111610a105760405162461bcd60e51b81526004016105e090612bdd565b610a1a8183611ee0565b610a2261239f565b8351815233602080830191909152808501516001600160a01b039081166040808501919091528601511660608084019190915285015160808084019190915285015160a08084019190915285015160c08084019190915285015160e08301526101008086015115159083015260ca805460018101825560009190915282518051849360099093027f42d72674974f694b5f5159593243114d38a5c39c89d6b62fee061ff523240ee10192610ada928492910190612408565b5060208201516001820180546001600160a01b03199081166001600160a01b03938416179091556040808501516002850180548416918516919091179055606085015160038501805490931693169290921790556080830151600483015560a0830151600583015560c0830151600683015560e08301516007830155610100909201516008909101805460ff191691151591909117905551339083907f88cddfb799a5d6bcb02f1bf05e53698a419d3a9486cb83e115825435d64b765390610ba3908590612f75565b60405180910390a350506098805460ff191660011790555050565b60d46020526000908152604090205481565b610bd8611f46565b6065546001600160a01b03908116911614610c055760405162461bcd60e51b81526004016105e090612cf2565b610c0f8282611f4a565b5050565b695478466565526174696f60b01b60005260976020527fc7b252fd6e9303929060a312da400a79593f0b4303aa45dbfd24e4c5d4fdb2c75490565b60d160209081526000928352604080842090915290825290205481565b60985460ff16610c8d5760405162461bcd60e51b81526004016105e090612edf565b6098805460ff1916905560ca5481908110610cba5760405162461bcd60e51b81526004016105e090612aa7565b610cc261239f565b60ca8381548110610ccf57fe5b600091825260209182902060408051600993909302909101805460026001821615610100026000190190911604601f81018590049094028301610140908101909252610120830184815292939092849290918491840182828015610d745780601f10610d4957610100808354040283529160200191610d74565b820191906000526020600020905b815481529060010190602001808311610d5757829003601f168201915b505050918352505060018201546001600160a01b0390811660208084019190915260028401548216604084015260038401548216606084015260048401546080840152600584015460a0840152600684015460c0840152600784015460e084015260089093015460ff1615156101009092019190915290820151919250163314610e105760405162461bcd60e51b81526004016105e090612bb8565b6020808201516001600160a01b0316600090815260cf82526040808220868352909252205460ff1615610e555760405162461bcd60e51b81526004016105e090612b6f565b6020808201516001600160a01b0316600090815260cf825260408082208683528352808220805460ff1916600117905560d4909252205415610f235760608101516001600160a01b0316610ef457610eab611c15565b600084815260d460205260408082205490516001600160a01b03939093169281156108fc0292818181858888f19350505050158015610eee573d6000803e3d6000fd5b50610f23565b610f23610eff611c15565b600085815260d4602052604090205460608401516001600160a01b03169190611f71565b600083815260cc60205260408120546080830151610f4091611e97565b90508015610fc35760408201516001600160a01b0316610f9d5781602001516001600160a01b03166108fc829081150290604051600060405180830381858888f19350505050158015610f97573d6000803e3d6000fd5b50610fc3565b610fc382602001518284604001516001600160a01b0316611f719092919063ffffffff16565b600084815260d4602052604090819020549051339186917fd9cb1e2714d65a111c0f20f060176ad657496bd47a3de04ec7c3d4ca232112ac91610ba391869190613020565b6001600160a01b03811682186000908152609760205260409020545b92915050565b60cb6020526000908152604090205481565b60cd6020526000908152604090205481565b7226b4b72b30b63ab2a7b32137ba2437b63232b960691b60005260976020527f6f70148f50089d4ed11c0858ac83480e86d3072d5886171be93c6c4ba59fe6905490565b3361109b61129a565b6001600160a01b031614806110e15750336001600160a01b031660ca83815481106110c257fe5b60009182526020909120600160099092020101546001600160a01b0316145b6110fd5760405162461bcd60e51b81526004016105e090612a56565b60005b815181101561115d5760d36000848152602001908152602001600020600083838151811061112a57fe5b6020908102919091018101516001600160a01b03168252810191909152604001600020805460ff19169055600101611100565b505050565b60009081526097602052604090205490565b61117c611f46565b6065546001600160a01b039081169116146111a95760405162461bcd60e51b81526004016105e090612cf2565b6065546040516000916001600160a01b0316907f8be0079c531659141344cd1fd0a4f28419497f9722a3daafe3b4186f6b6457e0908390a3606580546001600160a01b0319169055565b336111fc61129a565b6001600160a01b031614806112425750336001600160a01b031660ca838154811061122357fe5b60009182526020909120600160099092020101546001600160a01b0316145b61125e5760405162461bcd60e51b81526004016105e090612a56565b610c0f8282611ee0565b60cc6020526000908152604090205481565b60d360209081526000928352604080842090915290825290205460ff1681565b6065546001600160a01b031690565b1860009081526097602052604090205490565b60ca5490565b60d060209081526000928352604080842090915290825290205481565b60ca81815481106112ec57fe5b60009182526020918290206009919091020180546040805160026001841615610100026000190190931692909204601f8101859004850283018501909152808252919350918391908301828280156113855780601f1061135a57610100808354040283529160200191611385565b820191906000526020600020905b81548152906001019060200180831161136857829003601f168201915b50505050600183015460028401546003850154600486015460058701546006880154600789015460089099015497986001600160a01b03968716989587169750959093169491939092919060ff1689565b6113de611f46565b6065546001600160a01b0390811691161461140b5760405162461bcd60e51b81526004016105e090612cf2565b61115d6001600160a01b038316841882611f4a565b60ce6020526000908152604090205460ff1681565b672137ba2a37b5b2b760c11b60005260976020527ff8b521af4c41c6b3e43bbe26aab946504bdf758af1f0e92e5d8b88bb0e6286b45490565b60cf60209081526000928352604080842090915290825290205460ff1681565b60985460ff166114b05760405162461bcd60e51b81526004016105e090612edf565b6098805460ff1916905560ca54829081106114dd5760405162461bcd60e51b81526004016105e090612aa7565b600083815260ce6020526040902054839060ff161561159f576114fe61104e565b611506611435565b6001600160a01b03166370a08231336040518263ffffffff1660e01b81526004016115319190612907565b60206040518083038186803b15801561154957600080fd5b505afa15801561155d573d6000803e3d6000fd5b505050506040513d601f19601f8201168201806040525081019061158191906127e6565b101561159f5760405162461bcd60e51b81526004016105e090612dd9565b333281146115bf5760405162461bcd60e51b81526004016105e090612d27565b6115c761239f565b60ca86815481106115d457fe5b600091825260209182902060408051600993909302909101805460026001821615610100026000190190911604601f810185900490940283016101409081019092526101208301848152929390928492909184918401828280156116795780601f1061164e57610100808354040283529160200191611679565b820191906000526020600020905b81548152906001019060200180831161165c57829003601f168201915b505050918352505060018201546001600160a01b039081166020808401919091526002840154821660408085019190915260038501548316606085015260048501546080850152600585015460a0850152600685015460c0850152600785015460e085015260089094015460ff90811615156101009094019390935284810151909116600090815260cf82528381208b8252909152919091205491925016156117345760405162461bcd60e51b81526004016105e090612f4d565b8061010001511561178157600086815260d3602090815260408083206001600160a01b038616845290915290205460ff166117815760405162461bcd60e51b81526004016105e090612c0c565b428160c0015111156117a55760405162461bcd60e51b81526004016105e090612e08565b600086815260cd602052604090205460a0820151116117d65760405162461bcd60e51b81526004016105e090612d5e565b600086815260cd602052604081205460a083015182916117f69190611e97565b9050868110156118115761180a8782611e97565b9150611814565b50855b600061183b8460a00151611835866080015185611f9090919063ffffffff16565b90611fca565b60008a815260cc60205260408120546080870151929350909161185d91611e97565b90508181111561186a5750805b60008a815260cc6020526040902054611883908261200c565b60008b815260cc602090815260408083209390935560cd905220546118a8908461200c565b60008b815260cd60209081526040808320939093556001600160a01b038916825260d081528282208d8352905220546118e1908261200c565b6001600160a01b038716600081815260d0602090815260408083208f845282528083209490945591815260d182528281208d82529091522054611924908461200c565b6001600160a01b038716600090815260d1602090815260408083208e845282528083209390935560cd9052205460a0860151141561196e5760008a815260cb602052604090204290555b60608501516001600160a01b03166119a45788341461199f5760405162461bcd60e51b81526004016105e090612e2f565b6119be565b60608501516119be906001600160a01b031687308c611e39565b8015611a2b5760408501516001600160a01b0316611a12576040516001600160a01b0387169082156108fc029083906000818181858888f19350505050158015611a0c573d6000803e3d6000fd5b50611a2b565b6040850151611a2b906001600160a01b03168783611f71565b8315611a985760608501516001600160a01b0316611a7f576040516001600160a01b0387169085156108fc029086906000818181858888f19350505050158015611a79573d6000803e3d6000fd5b50611a98565b6060850151611a98906001600160a01b03168786611f71565b6000611ab8670de0b6b3a7640000611835611ab1610c13565b8790611f90565b60008c815260d46020526040902054909150611ad4908261200c565b60008c815260d46020526040812091909155611af08583611e97565b90508015611b735760608701516001600160a01b0316611b4d5786602001516001600160a01b03166108fc829081150290604051600060405180830381858888f19350505050158015611b47573d6000803e3d6000fd5b50611b73565b611b7387602001518289606001516001600160a01b0316611f719092919063ffffffff16565b876001600160a01b03168c7f4f3e4a24c8af698786b58691f56000795f97c98a676488342ba813d788722689858486604051611bb19392919061302e565b60405180910390a350506098805460ff1916600117905550505050505050505050565b611bdc611f46565b6065546001600160a01b03908116911614611c095760405162461bcd60e51b81526004016105e090612cf2565b61115d83831882611f4a565b6c14dd185ad950dbdb9d1c9858dd609a1b60005260976020527f64b4bece0a6884013dd61733d0cecd1e6ead3e169c5dafae05953f524f2d93eb5490565b60d260209081526000928352604080842090915290825290205460ff1681565b611c7b611f46565b6065546001600160a01b03908116911614611ca85760405162461bcd60e51b81526004016105e090612cf2565b6001600160a01b038116611cce5760405162461bcd60e51b81526004016105e0906129d9565b6065546040516001600160a01b038084169216907f8be0079c531659141344cd1fd0a4f28419497f9722a3daafe3b4186f6b6457e090600090a3606580546001600160a01b0319166001600160a01b0392909216919091179055565b303b1590565b600054610100900460ff1680611d495750611d49611d2a565b80611d57575060005460ff16155b611d735760405162461bcd60e51b81526004016105e090612d8b565b600054610100900460ff16158015611d9e576000805460ff1961ff0019909116610100171660011790555b611da6612031565b611dae6120b2565b8015611dc0576000805461ff00191690555b50565b600054610100900460ff1680611ddc5750611ddc611d2a565b80611dea575060005460ff16155b611e065760405162461bcd60e51b81526004016105e090612d8b565b600054610100900460ff16158015611e31576000805460ff1961ff0019909116610100171660011790555b611dae61218c565b611e91846323b872dd60e01b858585604051602401611e5a9392919061291b565b60408051601f198184030181529190526020810180516001600160e01b03166001600160e01b03199093169290921790915261221b565b50505050565b6000611ed983836040518060400160405280601e81526020017f536166654d6174683a207375627472616374696f6e206f766572666c6f770000815250612300565b9392505050565b60005b815181101561115d57600083815260d360205260408120835160019290859085908110611f0c57fe5b6020908102919091018101516001600160a01b03168252810191909152604001600020805460ff1916911515919091179055600101611ee3565b3390565b6000828152609760205260409020548114610c0f5760009182526097602052604090912055565b61115d8363a9059cbb60e01b8484604051602401611e5a92919061293f565b600082611f9f57506000611024565b82820282848281611fac57fe5b0414611ed95760405162461bcd60e51b81526004016105e090612c7a565b6000611ed983836040518060400160405280601a81526020017f536166654d6174683a206469766973696f6e206279207a65726f00000000000081525061232c565b600082820183811015611ed95760405162461bcd60e51b81526004016105e090612a1f565b600054610100900460ff168061204a575061204a611d2a565b80612058575060005460ff16155b6120745760405162461bcd60e51b81526004016105e090612d8b565b600054610100900460ff16158015611dae576000805460ff1961ff0019909116610100171660011790558015611dc0576000805461ff001916905550565b600054610100900460ff16806120cb57506120cb611d2a565b806120d9575060005460ff16155b6120f55760405162461bcd60e51b81526004016105e090612d8b565b600054610100900460ff16158015612120576000805460ff1961ff0019909116610100171660011790555b600061212a611f46565b606580546001600160a01b0319166001600160a01b038316908117909155604051919250906000907f8be0079c531659141344cd1fd0a4f28419497f9722a3daafe3b4186f6b6457e0908290a3508015611dc0576000805461ff001916905550565b600054610100900460ff16806121a557506121a5611d2a565b806121b3575060005460ff16155b6121cf5760405162461bcd60e51b81526004016105e090612d8b565b600054610100900460ff161580156121fa576000805460ff1961ff0019909116610100171660011790555b6098805460ff191660011790558015611dc0576000805461ff001916905550565b61222d826001600160a01b0316612363565b6122495760405162461bcd60e51b81526004016105e090612f16565b60006060836001600160a01b03168360405161226591906128eb565b6000604051808303816000865af19150503d80600081146122a2576040519150601f19603f3d011682016040523d82523d6000602084013e6122a7565b606091505b5091509150816122c95760405162461bcd60e51b81526004016105e090612ade565b805115611e9157808060200190518101906122e491906125f3565b611e915760405162461bcd60e51b81526004016105e090612e95565b600081848411156123245760405162461bcd60e51b81526004016105e09190612963565b505050900390565b6000818361234d5760405162461bcd60e51b81526004016105e09190612963565b50600083858161235957fe5b0495945050505050565b6000813f7fc5d2460186f7233c927e7db2dcc703c0e500b653ca82273b7bfad8045d85a47081811480159061239757508115155b949350505050565b6040518061012001604052806060815260200160006001600160a01b0316815260200160006001600160a01b0316815260200160006001600160a01b03168152602001600081526020016000815260200160008152602001600081526020016000151581525090565b828054600181600116156101000203166002900490600052602060002090601f016020900481019282601f1061244957805160ff1916838001178555612476565b82800160010185558215612476579182015b8281111561247657825182559160200191906001019061245b565b50612482929150612486565b5090565b5b808211156124825760008155600101612487565b80356001600160a01b038116811461102457600080fd5b600082601f8301126124c2578081fd5b813567ffffffffffffffff8111156124d8578182fd5b60208082026124e8828201613044565b8381529350818401858301828701840188101561250457600080fd5b600092505b8483101561252f5761251b888261249b565b825260019290920191908301908301612509565b505050505092915050565b803561102481613097565b600082601f830112612555578081fd5b813567ffffffffffffffff81111561256b578182fd5b61257e601f8201601f1916602001613044565b915080825283602082850101111561259557600080fd5b8060208401602084013760009082016020015292915050565b6000602082840312156125bf578081fd5b611ed9838361249b565b600080604083850312156125db578081fd5b6125e5848461249b565b946020939093013593505050565b600060208284031215612604578081fd5b8151611ed981613097565b600060208284031215612620578081fd5b5035919050565b60008060408385031215612639578182fd5b8235915060208301356001600160a01b0381168114612656578182fd5b809150509250929050565b600080600060608486031215612675578081fd5b83359250612686856020860161249b565b9150604084013590509250925092565b600080604083850312156126a8578182fd5b50508035926020909101359150565b6000806000606084860312156126cb578283fd5b505081359360208301359350604090920135919050565b600080604083850312156126f4578182fd5b823567ffffffffffffffff8082111561270b578384fd5b8185019150610120808388031215612721578485fd5b61272a81613044565b905082358281111561273a578586fd5b61274688828601612545565b825250612756876020850161249b565b6020820152612768876040850161249b565b6040820152606083013560608201526080830135608082015260a083013560a082015260c083013560c08201526127a28760e0850161253a565b60e08201526101006127b68882860161253a565b90820152935060208501359150808211156127cf578283fd5b506127dc858286016124b2565b9150509250929050565b6000602082840312156127f7578081fd5b5051919050565b60008060408385031215612810578182fd5b82359150612821846020850161249b565b90509250929050565b6000806040838503121561283c578081fd5b82359150602083013567ffffffffffffffff811115612859578182fd5b6127dc858286016124b2565b6000806000806080858703121561287a578182fd5b8435935060208501359250612892866040870161249b565b91506128a1866060870161249b565b905092959194509250565b6001600160a01b03169052565b15159052565b600081518084526128d781602086016020860161306b565b601f01601f19169290920160200192915050565b600082516128fd81846020870161306b565b9190910192915050565b6001600160a01b0391909116815260200190565b6001600160a01b039384168152919092166020820152604081019190915260600190565b6001600160a01b03929092168252602082015260400190565b901515815260200190565b600060208252611ed960208301846128bf565b600061012080835261298a8184018d6128bf565b6001600160a01b039b8c166020850152998b1660408401525050959097166060860152608085019390935260a084019190915260c083015260e082015291151561010090920191909152919050565b60208082526026908201527f4f776e61626c653a206e6577206f776e657220697320746865207a65726f206160408201526564647265737360d01b606082015260800190565b6020808252601b908201527f536166654d6174683a206164646974696f6e206f766572666c6f770000000000604082015260600190565b6020808252600d908201526c3737903832b936b4b9b9b4b7b760991b604082015260600190565b60208082526010908201526f696e76616c696420706f6f6c5479706560801b604082015260600190565b60208082526018908201527f7468697320706f6f6c20646f6573206e6f742065786973740000000000000000604082015260600190565b6020808252818101527f5361666545524332303a206c6f772d6c6576656c2063616c6c206661696c6564604082015260600190565b602080825260149082015273696e76616c696420616d6f756e74546f74616c3160601b604082015260600190565b6020808252601490820152730696e76616c696420616d6f756e74546f74616c360641b604082015260600190565b60208082526007908201526618db185a5b595960ca1b604082015260600190565b6020808252600e908201526d1a5b9d985b1a59081bdc195b905d60921b604082015260600190565b6020808252600b908201526a3737ba1031b932b0ba37b960a91b604082015260600190565b6020808252601590820152741b9bc81dda1a5d195b1a5cdd081a5b5c1bdc9d1959605a1b604082015260600190565b60208082526017908201527f73656e646572206e6f7420696e2077686974656c697374000000000000000000604082015260600190565b60208082526018908201527f424f5420686f6c646572206e6f7420737570706f727465640000000000000000604082015260600190565b60208082526021908201527f536166654d6174683a206d756c7469706c69636174696f6e206f766572666c6f6040820152607760f81b606082015260800190565b6020808252601a908201527f6c656e677468206f66206e616d6520697320746f6f206c6f6e67000000000000604082015260600190565b6020808252818101527f4f776e61626c653a2063616c6c6572206973206e6f7420746865206f776e6572604082015260600190565b60208082526018908201527f646973616c6c6f7720636f6e74726163742063616c6c65720000000000000000604082015260600190565b6020808252601390820152727377617020616d6f756e74206973207a65726f60681b604082015260600190565b6020808252602e908201527f436f6e747261637420696e7374616e63652068617320616c726561647920626560408201526d195b881a5b9a5d1a585b1a5e995960921b606082015260800190565b602080825260159082015274082eac6e8d2dedc40d2e640dcdee840cadcdeeaced605b1b604082015260600190565b6020808252600d908201526c3837b7b6103737ba1037b832b760991b604082015260600190565b6020808252601590820152740d2dcecc2d8d2c840c2dadeeadce840decc408aa89605b1b604082015260600190565b6020808252601e908201527f6e6f7420737570706f7274206465666c6174696f6e61727920746f6b656e0000604082015260600190565b6020808252602a908201527f5361666545524332303a204552433230206f7065726174696f6e20646964206e6040820152691bdd081cdd58d8d9595960b21b606082015260800190565b6020808252601f908201527f5265656e7472616e637947756172643a207265656e7472616e742063616c6c00604082015260600190565b6020808252601f908201527f5361666545524332303a2063616c6c20746f206e6f6e2d636f6e747261637400604082015260600190565b6020808252600e908201526d1c1bdbdb0819194b5b1a5cdd195960921b604082015260600190565b6000602082528251610120806020850152612f946101408501836128bf565b91506020850151612fa860408601826128ac565b506040850151612fbb60608601826128ac565b506060850151612fce60808601826128ac565b50608085015160a085015260a085015160c085015260c085015160e085015260e085015161010081818701528087015191505061300d828601826128b9565b5090949350505050565b90815260200190565b918252602082015260400190565b9283526020830191909152604082015260600190565b60405181810167ffffffffffffffff8111828210171561306357600080fd5b604052919050565b60005b8381101561308657818101518382015260200161306e565b83811115611e915750506000910152565b8015158114611dc057600080fdfea2646970667358221220bf6ad521f9a21dbe1e08fd3997df85dd3ce150f61ad413bdf73b8b5e1a7b458664736f6c634300060c0033",
  "linkReferences": {},
  "deployedLinkReferences": {}
}